:020000020000FC
:100000000FEF0DBF18E01EBF5FEF5A95F1F708958F
:100010000CEF07B903E008B920E040EF4AB947E028
:100020004BB960E08FED84B9309909C0319907C0B0
:10003000329905C048990CC049990AC0F5CF0E9471
:10004000040030990CC031990DC032991EC0ECCF1C
:100050000E94040048990EC049990FC0E5CF23952E
:1000600028B9E2CF203001F32A9528B9DDCF20E06E
:1000700028B9DACF63956BB9D7CF6030A9F26A950A
:100080006BB9D2CF60E06BB9CFCF820F961F85B925
:0400900095B9CACF85
:00000001FF
